{
  "contractName": "Election",
  "abi": [
    {
      "inputs": [],
      "stateMutability": "nonpayable",
      "type": "constructor"
    },
    {
      "anonymous": false,
      "inputs": [
        {
          "indexed": false,
          "internalType": "address",
          "name": "by",
          "type": "address"
        },
        {
          "components": [
            {
              "internalType": "uint256",
              "name": "id",
              "type": "uint256"
            },
            {
              "internalType": "string",
              "name": "name",
              "type": "string"
            },
            {
              "internalType": "uint256",
              "name": "voteCount",
              "type": "uint256"
            }
          ],
          "indexed": false,
          "internalType": "struct Election.Candidate",
          "name": "to",
          "type": "tuple"
        }
      ],
      "name": "VoteCasted",
      "type": "event"
    },
    {
      "inputs": [
        {
          "internalType": "uint256",
          "name": "",
          "type": "uint256"
        }
      ],
      "name": "candidates",
      "outputs": [
        {
          "internalType": "uint256",
          "name": "id",
          "type": "uint256"
        },
        {
          "internalType": "string",
          "name": "name",
          "type": "string"
        },
        {
          "internalType": "uint256",
          "name": "voteCount",
          "type": "uint256"
        }
      ],
      "stateMutability": "view",
      "type": "function",
      "constant": true
    },
    {
      "inputs": [],
      "name": "candidatesCount",
      "outputs": [
        {
          "internalType": "uint256",
          "name": "",
          "type": "uint256"
        }
      ],
      "stateMutability": "view",
      "type": "function",
      "constant": true
    },
    {
      "inputs": [
        {
          "internalType": "uint256",
          "name": "",
          "type": "uint256"
        }
      ],
      "name": "votes",
      "outputs": [
        {
          "internalType": "uint256",
          "name": "",
          "type": "uint256"
        }
      ],
      "stateMutability": "view",
      "type": "function",
      "constant": true
    },
    {
      "inputs": [
        {
          "internalType": "uint256",
          "name": "_id",
          "type": "uint256"
        }
      ],
      "name": "casteVote",
      "outputs": [],
      "stateMutability": "nonpayable",
      "type": "function"
    },
    {
      "inputs": [
        {
          "internalType": "uint256",
          "name": "_id",
          "type": "uint256"
        }
      ],
      "name": "getVotes",
      "outputs": [
        {
          "internalType": "uint256",
          "name": "",
          "type": "uint256"
        }
      ],
      "stateMutability": "view",
      "type": "function",
      "constant": true
    }
  ],
  "bytecode": "0x60806040523480156200001157600080fd5b50620000586040518060400160405280600b81526020017f43616e6469646174652031000000000000000000000000000000000000000000815250620000a460201b60201c565b6200009e6040518060400160405280600b81526020017f43616e6469646174652032000000000000000000000000000000000000000000815250620000a460201b60201c565b620004ff565b60026000815480929190620000b9906200015b565b9190505550604051806060016040528060025481526020018281526020016000815250600080600254815260200190815260200160002060008201518160000155602082015181600101908162000111919062000418565b506040820151816002015590505050565b7f4e487b7100000000000000000000000000000000000000000000000000000000600052601160045260246000fd5b6000819050919050565b6000620001688262000151565b91507fffffffffffffffffffffffffffffffffffffffffffffffffffffffffffffffff82036200019d576200019c62000122565b5b600182019050919050565b600081519050919050565b7f4e487b7100000000000000000000000000000000000000000000000000000000600052604160045260246000fd5b7f4e487b7100000000000000000000000000000000000000000000000000000000600052602260045260246000fd5b600060028204905060018216806200022a57607f821691505b60208210810362000240576200023f620001e2565b5b50919050565b60008190508160005260206000209050919050565b60006020601f8301049050919050565b600082821b905092915050565b600060088302620002aa7fffffffffffffffffffffffffffffffffffffffffffffffffffffffffffffffff826200026b565b620002b686836200026b565b95508019841693508086168417925050509392505050565b6000819050919050565b6000620002f9620002f3620002ed8462000151565b620002ce565b62000151565b9050919050565b6000819050919050565b6200031583620002d8565b6200032d620003248262000300565b84845462000278565b825550505050565b600090565b6200034462000335565b620003518184846200030a565b505050565b5b8181101562000379576200036d6000826200033a565b60018101905062000357565b5050565b601f821115620003c857620003928162000246565b6200039d846200025b565b81016020851015620003ad578190505b620003c5620003bc856200025b565b83018262000356565b50505b505050565b600082821c905092915050565b6000620003ed60001984600802620003cd565b1980831691505092915050565b6000620004088383620003da565b9150826002028217905092915050565b6200042382620001a8565b67ffffffffffffffff8111156200043f576200043e620001b3565b5b6200044b825462000211565b620004588282856200037d565b600060209050601f8311600181146200049057600084156200047b578287015190505b620004878582620003fa565b865550620004f7565b601f198416620004a08662000246565b60005b82811015620004ca57848901518255600182019150602085019450602081019050620004a3565b86831015620004ea5784890151620004e6601f891682620003da565b8355505b6001600288020188555050505b505050505050565b6106ac806200050f6000396000f3fe608060405234801561001057600080fd5b50600436106100575760003560e01c80632d35a8a21461005c5780633477ee2e1461007a5780635df81330146100ac578063685940f8146100dc578063ff981099146100f8575b600080fd5b610064610128565b60405161007191906102aa565b60405180910390f35b610094600480360381019061008f91906102f6565b61012e565b6040516100a3939291906103b3565b60405180910390f35b6100c660048036038101906100c191906102f6565b6101e0565b6040516100d391906102aa565b60405180910390f35b6100f660048036038101906100f191906102f6565b6101f8565b005b610112600480360381019061010d91906102f6565b610272565b60405161011f91906102aa565b60405180910390f35b60025481565b600060205280600052604060002060009150905080600001549080600101805461015790610420565b80601f016020809104026020016040519081016040528092919081815260200182805461018390610420565b80156101d05780601f106101a5576101008083540402835291602001916101d0565b820191906000526020600020905b8154815290600101906020018083116101b357829003601f168201915b5050505050908060020154905083565b60016020528060005260406000206000915090505481565b6001600080838152602001908152602001600020600201600082825461021e9190610480565b925050819055507fcd249cf74e651da41809dbc05e67aa0ff4b5e6d3dc0740cdfc7ddca7a571893633600080848152602001908152602001600020604051610267929190610646565b60405180910390a150565b6000806000838152602001908152602001600020600201549050919050565b6000819050919050565b6102a481610291565b82525050565b60006020820190506102bf600083018461029b565b92915050565b600080fd5b6102d381610291565b81146102de57600080fd5b50565b6000813590506102f0816102ca565b92915050565b60006020828403121561030c5761030b6102c5565b5b600061031a848285016102e1565b91505092915050565b600081519050919050565b600082825260208201905092915050565b60005b8381101561035d578082015181840152602081019050610342565b60008484015250505050565b6000601f19601f8301169050919050565b600061038582610323565b61038f818561032e565b935061039f81856020860161033f565b6103a881610369565b840191505092915050565b60006060820190506103c8600083018661029b565b81810360208301526103da818561037a565b90506103e9604083018461029b565b949350505050565b7f4e487b7100000000000000000000000000000000000000000000000000000000600052602260045260246000fd5b6000600282049050600182168061043857607f821691505b60208210810361044b5761044a6103f1565b5b50919050565b7f4e487b7100000000000000000000000000000000000000000000000000000000600052601160045260246000fd5b600061048b82610291565b915061049683610291565b92508282019050808211156104ae576104ad610451565b5b92915050565b600073ffffffffffffffffffffffffffffffffffffffff82169050919050565b60006104df826104b4565b9050919050565b6104ef816104d4565b82525050565b60008160001c9050919050565b6000819050919050565b600061051f61051a836104f5565b610502565b9050919050565b61052f81610291565b82525050565b600082825260208201905092915050565b60008190508160005260206000209050919050565b6000815461056881610420565b6105728186610535565b9450600182166000811461058d57600181146105a3576105d6565b60ff1983168652811515602002860193506105d6565b6105ac85610546565b60005b838110156105ce578154818901526001820191506020810190506105af565b808801955050505b50505092915050565b60006060830160008084015490506105f68161050c565b6106036000870182610526565b5060018401858303602087015261061a838261055b565b9250506002840154905061062d8161050c565b61063a6040870182610526565b50819250505092915050565b600060408201905061065b60008301856104e6565b818103602083015261066d81846105df565b9050939250505056fea2646970667358221220701e53efd7a94684a955820b9bddeae60ab01fe40f5a06a1d748f86af69a7a4c64736f6c63430008100033",
  "immutableReferences": {},
  "source": "pragma solidity ^0.8.1;\n\ncontract Election {\n    // Model a Candidate\n    struct Candidate {\n        uint256 id;\n        string name;\n        uint256 voteCount;\n    }\n\n    event VoteCasted(address by, Candidate to);\n\n    // Read/write candidates\n    mapping(uint256 => Candidate) public candidates;\n\n    // Maps the votes for every candidate with their ids\n    mapping(uint256 => uint256) public votes;\n\n    // Store Candidates Count\n    uint256 public candidatesCount;\n\n    constructor() {\n        addCandidate(\"Candidate 1\");\n        addCandidate(\"Candidate 2\");\n    }\n\n    function addCandidate(string memory _name) private {\n        candidatesCount++;\n        candidates[candidatesCount] = Candidate(candidatesCount, _name, 0);\n    }\n\n    function casteVote(uint256 _id) public {\n        candidates[_id].voteCount += 1;\n        emit VoteCasted(msg.sender, candidates[_id]);\n    }\n\n    function getVotes(uint256 _id) public view returns (uint256) {\n        return candidates[_id].voteCount;\n    }\n}\n",
  "sourcePath": "/Users/jivinvaidya/Desktop/election/contracts/Election.sol",
  "compiler": {
    "name": "solc",
    "version": "0.8.16+commit.07a7930e.Emscripten.clang"
  },
  "schemaVersion": "3.4.9",
  "updatedAt": "2022-12-16T15:08:41.155Z",
  "networkType": "ethereum",
  "devdoc": {
    "kind": "dev",
    "methods": {},
    "version": 1
  },
  "userdoc": {
    "kind": "user",
    "methods": {},
    "version": 1
  }
}